{
  "_format": "hh-sol-artifact-1",
  "contractName": "Registrar",
  "sourceName": "contracts/registrar/Registrar.sol",
  "abi": [
    {
      "inputs": [],
      "name": "ControllerAlreadyAdded",
      "type": "error"
    },
    {
      "inputs": [],
      "name": "ControllerNotExists",
      "type": "error"
    },
    {
      "inputs": [],
      "name": "DomainGroupNotExists",
      "type": "error"
    },
    {
      "inputs": [],
      "name": "DomainNotExists",
      "type": "error"
    },
    {
      "inputs": [],
      "name": "EmptyDomainName",
      "type": "error"
    },
    {
      "inputs": [],
      "name": "InvalidDomainIndex",
      "type": "error"
    },
    {
      "inputs": [],
      "name": "InvalidFolderGroup",
      "type": "error"
    },
    {
      "inputs": [],
      "name": "LockedMetadata",
      "type": "error"
    },
    {
      "inputs": [],
      "name": "NoParentDomain",
      "type": "error"
    },
    {
      "inputs": [],
      "name": "NotApprovedOrOwner",
      "type": "error"
    },
    {
      "inputs": [],
      "name": "NotAuthorized",
      "type": "error"
    },
    {
      "inputs": [],
      "name": "NotController",
      "type": "error"
    },
    {
      "inputs": [],
      "name": "NotDomainOwner",
      "type": "error"
    },
    {
      "inputs": [],
      "name": "NotLockedMetadata",
      "type": "error"
    },
    {
      "inputs": [],
      "name": "NotMetadataLocker",
      "type": "error"
    },
    {
      "inputs": [
        {
          "internalType": "address",
          "name": "operator",
          "type": "address"
        }
      ],
      "name": "OperatorNotAllowed",
      "type": "error"
    },
    {
      "inputs": [],
      "name": "SameFolderGroup",
      "type": "error"
    },
    {
      "inputs": [],
      "name": "SameMetadataUri",
      "type": "error"
    },
    {
      "inputs": [],
      "name": "ShouldUpdateViaDomainGroup",
      "type": "error"
    },
    {
      "inputs": [],
      "name": "SubdomainParent",
      "type": "error"
    },
    {
      "anonymous": false,
      "inputs": [
        {
          "indexed": true,
          "internalType": "address",
          "name": "owner",
          "type": "address"
        },
        {
          "indexed": true,
          "internalType": "address",
          "name": "approved",
          "type": "address"
        },
        {
          "indexed": true,
          "internalType": "uint256",
          "name": "tokenId",
          "type": "uint256"
        }
      ],
      "name": "Approval",
      "type": "event"
    },
    {
      "anonymous": false,
      "inputs": [
        {
          "indexed": true,
          "internalType": "address",
          "name": "owner",
          "type": "address"
        },
        {
          "indexed": true,
          "internalType": "address",
          "name": "operator",
          "type": "address"
        },
        {
          "indexed": false,
          "internalType": "bool",
          "name": "approved",
          "type": "bool"
        }
      ],
      "name": "ApprovalForAll",
      "type": "event"
    },
    {
      "anonymous": false,
      "inputs": [
        {
          "indexed": true,
          "internalType": "address",
          "name": "controller",
          "type": "address"
        }
      ],
      "name": "ControllerAdded",
      "type": "event"
    },
    {
      "anonymous": false,
      "inputs": [
        {
          "indexed": true,
          "internalType": "address",
          "name": "controller",
          "type": "address"
        }
      ],
      "name": "ControllerRemoved",
      "type": "event"
    },
    {
      "anonymous": false,
      "inputs": [
        {
          "indexed": true,
          "internalType": "uint256",
          "name": "id",
          "type": "uint256"
        },
        {
          "indexed": false,
          "internalType": "string",
          "name": "label",
          "type": "string"
        },
        {
          "indexed": true,
          "internalType": "uint256",
          "name": "labelHash",
          "type": "uint256"
        },
        {
          "indexed": true,
          "internalType": "uint256",
          "name": "parent",
          "type": "uint256"
        },
        {
          "indexed": false,
          "internalType": "address",
          "name": "minter",
          "type": "address"
        },
        {
          "indexed": false,
          "internalType": "address",
          "name": "controller",
          "type": "address"
        },
        {
          "indexed": false,
          "internalType": "string",
          "name": "metadataUri",
          "type": "string"
        },
        {
          "indexed": false,
          "internalType": "uint256",
          "name": "royaltyAmount",
          "type": "uint256"
        }
      ],
      "name": "DomainCreated",
      "type": "event"
    },
    {
      "anonymous": false,
      "inputs": [
        {
          "indexed": true,
          "internalType": "uint256",
          "name": "id",
          "type": "uint256"
        },
        {
          "indexed": false,
          "internalType": "string",
          "name": "uri",
          "type": "string"
        }
      ],
      "name": "MetadataChanged",
      "type": "event"
    },
    {
      "anonymous": false,
      "inputs": [
        {
          "indexed": true,
          "internalType": "uint256",
          "name": "id",
          "type": "uint256"
        },
        {
          "indexed": false,
          "internalType": "address",
          "name": "locker",
          "type": "address"
        },
        {
          "indexed": false,
          "internalType": "bool",
          "name": "isLocked",
          "type": "bool"
        }
      ],
      "name": "MetadataLockChanged",
      "type": "event"
    },
    {
      "anonymous": false,
      "inputs": [
        {
          "indexed": true,
          "internalType": "address",
          "name": "previousOwner",
          "type": "address"
        },
        {
          "indexed": true,
          "internalType": "address",
          "name": "newOwner",
          "type": "address"
        }
      ],
      "name": "OwnershipTransferred",
      "type": "event"
    },
    {
      "anonymous": false,
      "inputs": [
        {
          "indexed": false,
          "internalType": "address",
          "name": "account",
          "type": "address"
        }
      ],
      "name": "Paused",
      "type": "event"
    },
    {
      "anonymous": false,
      "inputs": [
        {
          "indexed": true,
          "internalType": "uint256",
          "name": "id",
          "type": "uint256"
        },
        {
          "indexed": false,
          "internalType": "uint256",
          "name": "amount",
          "type": "uint256"
        }
      ],
      "name": "RoyaltiesAmountChanged",
      "type": "event"
    },
    {
      "anonymous": false,
      "inputs": [
        {
          "indexed": true,
          "internalType": "address",
          "name": "from",
          "type": "address"
        },
        {
          "indexed": true,
          "internalType": "address",
          "name": "to",
          "type": "address"
        },
        {
          "indexed": true,
          "internalType": "uint256",
          "name": "tokenId",
          "type": "uint256"
        }
      ],
      "name": "Transfer",
      "type": "event"
    },
    {
      "anonymous": false,
      "inputs": [
        {
          "indexed": false,
          "internalType": "address",
          "name": "account",
          "type": "address"
        }
      ],
      "name": "Unpaused",
      "type": "event"
    },
    {
      "inputs": [],
      "name": "OPERATOR_FILTER_REGISTRY",
      "outputs": [
        {
          "internalType": "contract IOperatorFilterRegistry",
          "name": "",
          "type": "address"
        }
      ],
      "stateMutability": "view",
      "type": "function"
    },
    {
      "inputs": [
        {
          "internalType": "address",
          "name": "controller",
          "type": "address"
        }
      ],
      "name": "addController",
      "outputs": [],
      "stateMutability": "nonpayable",
      "type": "function"
    },
    {
      "inputs": [
        {
          "internalType": "uint256",
          "name": "tokenId",
          "type": "uint256"
        }
      ],
      "name": "adminBurnToken",
      "outputs": [],
      "stateMutability": "nonpayable",
      "type": "function"
    },
    {
      "inputs": [
        {
          "internalType": "string",
          "name": "folderWithIPFSPrefix",
          "type": "string"
        },
        {
          "internalType": "uint256[]",
          "name": "orderedIds",
          "type": "uint256[]"
        },
        {
          "internalType": "uint256",
          "name": "ipfsFolderIndexOffset",
          "type": "uint256"
        }
      ],
      "name": "adminSetMetadataBulk",
      "outputs": [],
      "stateMutability": "nonpayable",
      "type": "function"
    },
    {
      "inputs": [
        {
          "internalType": "string",
          "name": "folderWithIPFSPrefix",
          "type": "string"
        },
        {
          "internalType": "uint256",
          "name": "tokenIndexStart",
          "type": "uint256"
        },
        {
          "internalType": "uint256",
          "name": "ipfsFolderIndexStart",
          "type": "uint256"
        },
        {
          "internalType": "uint256",
          "name": "count",
          "type": "uint256"
        }
      ],
      "name": "adminSetMetadataBulkByIndex",
      "outputs": [],
      "stateMutability": "nonpayable",
      "type": "function"
    },
    {
      "inputs": [
        {
          "internalType": "uint256",
          "name": "id",
          "type": "uint256"
        },
        {
          "internalType": "string",
          "name": "uri",
          "type": "string"
        }
      ],
      "name": "adminSetMetadataUri",
      "outputs": [],
      "stateMutability": "nonpayable",
      "type": "function"
    },
    {
      "inputs": [
        {
          "internalType": "address",
          "name": "from",
          "type": "address"
        },
        {
          "internalType": "address",
          "name": "to",
          "type": "address"
        },
        {
          "internalType": "uint256",
          "name": "tokenId",
          "type": "uint256"
        }
      ],
      "name": "adminTransfer",
      "outputs": [],
      "stateMutability": "nonpayable",
      "type": "function"
    },
    {
      "inputs": [
        {
          "internalType": "address",
          "name": "operator",
          "type": "address"
        },
        {
          "internalType": "uint256",
          "name": "tokenId",
          "type": "uint256"
        }
      ],
      "name": "approve",
      "outputs": [],
      "stateMutability": "nonpayable",
      "type": "function"
    },
    {
      "inputs": [
        {
          "internalType": "address",
          "name": "owner",
          "type": "address"
        }
      ],
      "name": "balanceOf",
      "outputs": [
        {
          "internalType": "uint256",
          "name": "",
          "type": "uint256"
        }
      ],
      "stateMutability": "view",
      "type": "function"
    },
    {
      "inputs": [],
      "name": "baseURI",
      "outputs": [
        {
          "internalType": "string",
          "name": "",
          "type": "string"
        }
      ],
      "stateMutability": "view",
      "type": "function"
    },
    {
      "inputs": [],
      "name": "beacon",
      "outputs": [
        {
          "internalType": "address",
          "name": "",
          "type": "address"
        }
      ],
      "stateMutability": "view",
      "type": "function"
    },
    {
      "inputs": [
        {
          "internalType": "address",
          "name": "",
          "type": "address"
        }
      ],
      "name": "controllers",
      "outputs": [
        {
          "internalType": "bool",
          "name": "",
          "type": "bool"
        }
      ],
      "stateMutability": "view",
      "type": "function"
    },
    {
      "inputs": [
        {
          "internalType": "string",
          "name": "baseMetadataUri",
          "type": "string"
        }
      ],
      "name": "createDomainGroup",
      "outputs": [
        {
          "internalType": "uint256",
          "name": "",
          "type": "uint256"
        }
      ],
      "stateMutability": "nonpayable",
      "type": "function"
    },
    {
      "inputs": [
        {
          "internalType": "uint256",
          "name": "id",
          "type": "uint256"
        }
      ],
      "name": "domainController",
      "outputs": [
        {
          "internalType": "address",
          "name": "",
          "type": "address"
        }
      ],
      "stateMutability": "view",
      "type": "function"
    },
    {
      "inputs": [
        {
          "internalType": "uint256",
          "name": "id",
          "type": "uint256"
        }
      ],
      "name": "domainExists",
      "outputs": [
        {
          "internalType": "bool",
          "name": "",
          "type": "bool"
        }
      ],
      "stateMutability": "view",
      "type": "function"
    },
    {
      "inputs": [
        {
          "internalType": "uint256",
          "name": "",
          "type": "uint256"
        }
      ],
      "name": "domainGroups",
      "outputs": [
        {
          "internalType": "string",
          "name": "baseMetadataUri",
          "type": "string"
        }
      ],
      "stateMutability": "view",
      "type": "function"
    },
    {
      "inputs": [
        {
          "internalType": "uint256",
          "name": "id",
          "type": "uint256"
        }
      ],
      "name": "domainMetadataLockedBy",
      "outputs": [
        {
          "internalType": "address",
          "name": "",
          "type": "address"
        }
      ],
      "stateMutability": "view",
      "type": "function"
    },
    {
      "inputs": [
        {
          "internalType": "uint256",
          "name": "id",
          "type": "uint256"
        }
      ],
      "name": "domainRoyaltyAmount",
      "outputs": [
        {
          "internalType": "uint256",
          "name": "",
          "type": "uint256"
        }
      ],
      "stateMutability": "view",
      "type": "function"
    },
    {
      "inputs": [
        {
          "internalType": "uint256",
          "name": "tokenId",
          "type": "uint256"
        }
      ],
      "name": "getApproved",
      "outputs": [
        {
          "internalType": "address",
          "name": "",
          "type": "address"
        }
      ],
      "stateMutability": "view",
      "type": "function"
    },
    {
      "inputs": [
        {
          "internalType": "address",
          "name": "parentRegistrar_",
          "type": "address"
        },
        {
          "internalType": "uint256",
          "name": "rootDomainId_",
          "type": "uint256"
        },
        {
          "internalType": "string",
          "name": "collectionName",
          "type": "string"
        },
        {
          "internalType": "string",
          "name": "collectionSymbol",
          "type": "string"
        },
        {
          "internalType": "address",
          "name": "zNSHub_",
          "type": "address"
        }
      ],
      "name": "initialize",
      "outputs": [],
      "stateMutability": "nonpayable",
      "type": "function"
    },
    {
      "inputs": [
        {
          "internalType": "address",
          "name": "owner",
          "type": "address"
        },
        {
          "internalType": "address",
          "name": "operator",
          "type": "address"
        }
      ],
      "name": "isApprovedForAll",
      "outputs": [
        {
          "internalType": "bool",
          "name": "",
          "type": "bool"
        }
      ],
      "stateMutability": "view",
      "type": "function"
    },
    {
      "inputs": [
        {
          "internalType": "address",
          "name": "account",
          "type": "address"
        }
      ],
      "name": "isController",
      "outputs": [
        {
          "internalType": "bool",
          "name": "",
          "type": "bool"
        }
      ],
      "stateMutability": "view",
      "type": "function"
    },
    {
      "inputs": [
        {
          "internalType": "uint256",
          "name": "id",
          "type": "uint256"
        }
      ],
      "name": "isDomainMetadataLocked",
      "outputs": [
        {
          "internalType": "bool",
          "name": "",
          "type": "bool"
        }
      ],
      "stateMutability": "view",
      "type": "function"
    },
    {
      "inputs": [
        {
          "internalType": "uint256",
          "name": "id",
          "type": "uint256"
        },
        {
          "internalType": "bool",
          "name": "toLock",
          "type": "bool"
        }
      ],
      "name": "lockDomainMetadata",
      "outputs": [],
      "stateMutability": "nonpayable",
      "type": "function"
    },
    {
      "inputs": [
        {
          "internalType": "uint256",
          "name": "id",
          "type": "uint256"
        }
      ],
      "name": "minterOf",
      "outputs": [
        {
          "internalType": "address",
          "name": "",
          "type": "address"
        }
      ],
      "stateMutability": "view",
      "type": "function"
    },
    {
      "inputs": [],
      "name": "name",
      "outputs": [
        {
          "internalType": "string",
          "name": "",
          "type": "string"
        }
      ],
      "stateMutability": "view",
      "type": "function"
    },
    {
      "inputs": [],
      "name": "numDomainGroups",
      "outputs": [
        {
          "internalType": "uint256",
          "name": "",
          "type": "uint256"
        }
      ],
      "stateMutability": "view",
      "type": "function"
    },
    {
      "inputs": [],
      "name": "owner",
      "outputs": [
        {
          "internalType": "address",
          "name": "",
          "type": "address"
        }
      ],
      "stateMutability": "view",
      "type": "function"
    },
    {
      "inputs": [
        {
          "internalType": "uint256",
          "name": "tokenId",
          "type": "uint256"
        }
      ],
      "name": "ownerOf",
      "outputs": [
        {
          "internalType": "address",
          "name": "",
          "type": "address"
        }
      ],
      "stateMutability": "view",
      "type": "function"
    },
    {
      "inputs": [
        {
          "internalType": "uint256",
          "name": "id",
          "type": "uint256"
        }
      ],
      "name": "parentOf",
      "outputs": [
        {
          "internalType": "uint256",
          "name": "",
          "type": "uint256"
        }
      ],
      "stateMutability": "view",
      "type": "function"
    },
    {
      "inputs": [],
      "name": "parentRegistrar",
      "outputs": [
        {
          "internalType": "address",
          "name": "",
          "type": "address"
        }
      ],
      "stateMutability": "view",
      "type": "function"
    },
    {
      "inputs": [],
      "name": "pause",
      "outputs": [],
      "stateMutability": "nonpayable",
      "type": "function"
    },
    {
      "inputs": [],
      "name": "paused",
      "outputs": [
        {
          "internalType": "bool",
          "name": "",
          "type": "bool"
        }
      ],
      "stateMutability": "view",
      "type": "function"
    },
    {
      "inputs": [
        {
          "internalType": "uint256",
          "name": "",
          "type": "uint256"
        }
      ],
      "name": "records",
      "outputs": [
        {
          "internalType": "address",
          "name": "minter",
          "type": "address"
        },
        {
          "internalType": "bool",
          "name": "metadataLocked",
          "type": "bool"
        },
        {
          "internalType": "address",
          "name": "metadataLockedBy",
          "type": "address"
        },
        {
          "internalType": "address",
          "name": "controller",
          "type": "address"
        },
        {
          "internalType": "uint256",
          "name": "royaltyAmount",
          "type": "uint256"
        },
        {
          "internalType": "uint256",
          "name": "parentId",
          "type": "uint256"
        },
        {
          "internalType": "address",
          "name": "subdomainContract",
          "type": "address"
        },
        {
          "internalType": "uint256",
          "name": "domainGroup",
          "type": "uint256"
        },
        {
          "internalType": "uint256",
          "name": "domainGroupFileIndex",
          "type": "uint256"
        }
      ],
      "stateMutability": "view",
      "type": "function"
    },
    {
      "inputs": [
        {
          "internalType": "uint256",
          "name": "parentId",
          "type": "uint256"
        },
        {
          "internalType": "string",
          "name": "label",
          "type": "string"
        },
        {
          "internalType": "address",
          "name": "minter",
          "type": "address"
        },
        {
          "internalType": "string",
          "name": "metadataUri",
          "type": "string"
        },
        {
          "internalType": "uint256",
          "name": "royaltyAmount",
          "type": "uint256"
        },
        {
          "internalType": "bool",
          "name": "locked",
          "type": "bool"
        }
      ],
      "name": "registerDomain",
      "outputs": [
        {
          "internalType": "uint256",
          "name": "",
          "type": "uint256"
        }
      ],
      "stateMutability": "nonpayable",
      "type": "function"
    },
    {
      "inputs": [
        {
          "internalType": "uint256",
          "name": "parentId",
          "type": "uint256"
        },
        {
          "internalType": "string",
          "name": "label",
          "type": "string"
        },
        {
          "internalType": "address",
          "name": "minter",
          "type": "address"
        },
        {
          "internalType": "string",
          "name": "metadataUri",
          "type": "string"
        },
        {
          "internalType": "uint256",
          "name": "royaltyAmount",
          "type": "uint256"
        },
        {
          "internalType": "bool",
          "name": "locked",
          "type": "bool"
        },
        {
          "internalType": "address",
          "name": "sendToUser",
          "type": "address"
        }
      ],
      "name": "registerDomainAndSend",
      "outputs": [
        {
          "internalType": "uint256",
          "name": "",
          "type": "uint256"
        }
      ],
      "stateMutability": "nonpayable",
      "type": "function"
    },
    {
      "inputs": [
        {
          "internalType": "uint256",
          "name": "parentId",
          "type": "uint256"
        },
        {
          "internalType": "uint256",
          "name": "namingOffset",
          "type": "uint256"
        },
        {
          "internalType": "uint256",
          "name": "startingIndex",
          "type": "uint256"
        },
        {
          "internalType": "uint256",
          "name": "endingIndex",
          "type": "uint256"
        },
        {
          "internalType": "address",
          "name": "minter",
          "type": "address"
        },
        {
          "internalType": "string",
          "name": "folderWithIPFSPrefix",
          "type": "string"
        },
        {
          "internalType": "uint256",
          "name": "royaltyAmount",
          "type": "uint256"
        },
        {
          "internalType": "bool",
          "name": "locked",
          "type": "bool"
        }
      ],
      "name": "registerDomainAndSendBulk",
      "outputs": [],
      "stateMutability": "nonpayable",
      "type": "function"
    },
    {
      "inputs": [
        {
          "internalType": "uint256",
          "name": "parentId",
          "type": "uint256"
        },
        {
          "internalType": "uint256",
          "name": "groupId",
          "type": "uint256"
        },
        {
          "internalType": "uint256",
          "name": "namingOffset",
          "type": "uint256"
        },
        {
          "internalType": "uint256",
          "name": "startingIndex",
          "type": "uint256"
        },
        {
          "internalType": "uint256",
          "name": "endingIndex",
          "type": "uint256"
        },
        {
          "internalType": "address",
          "name": "minter",
          "type": "address"
        },
        {
          "internalType": "uint256",
          "name": "royaltyAmount",
          "type": "uint256"
        },
        {
          "internalType": "address",
          "name": "sendTo",
          "type": "address"
        }
      ],
      "name": "registerDomainInGroupBulk",
      "outputs": [],
      "stateMutability": "nonpayable",
      "type": "function"
    },
    {
      "inputs": [
        {
          "internalType": "uint256",
          "name": "parentId",
          "type": "uint256"
        },
        {
          "internalType": "string",
          "name": "label",
          "type": "string"
        },
        {
          "internalType": "address",
          "name": "minter",
          "type": "address"
        },
        {
          "internalType": "string",
          "name": "metadataUri",
          "type": "string"
        },
        {
          "internalType": "uint256",
          "name": "royaltyAmount",
          "type": "uint256"
        },
        {
          "internalType": "bool",
          "name": "locked",
          "type": "bool"
        },
        {
          "internalType": "address",
          "name": "sendToUser",
          "type": "address"
        }
      ],
      "name": "registerSubdomainContract",
      "outputs": [
        {
          "internalType": "uint256",
          "name": "",
          "type": "uint256"
        }
      ],
      "stateMutability": "nonpayable",
      "type": "function"
    },
    {
      "inputs": [
        {
          "internalType": "address",
          "name": "controller",
          "type": "address"
        }
      ],
      "name": "removeController",
      "outputs": [],
      "stateMutability": "nonpayable",
      "type": "function"
    },
    {
      "inputs": [],
      "name": "renounceOwnership",
      "outputs": [],
      "stateMutability": "nonpayable",
      "type": "function"
    },
    {
      "inputs": [],
      "name": "rootDomainId",
      "outputs": [
        {
          "internalType": "uint256",
          "name": "",
          "type": "uint256"
        }
      ],
      "stateMutability": "view",
      "type": "function"
    },
    {
      "inputs": [
        {
          "internalType": "address",
          "name": "from",
          "type": "address"
        },
        {
          "internalType": "address",
          "name": "to",
          "type": "address"
        },
        {
          "internalType": "uint256",
          "name": "tokenId",
          "type": "uint256"
        }
      ],
      "name": "safeTransferFrom",
      "outputs": [],
      "stateMutability": "nonpayable",
      "type": "function"
    },
    {
      "inputs": [
        {
          "internalType": "address",
          "name": "from",
          "type": "address"
        },
        {
          "internalType": "address",
          "name": "to",
          "type": "address"
        },
        {
          "internalType": "uint256",
          "name": "tokenId",
          "type": "uint256"
        },
        {
          "internalType": "bytes",
          "name": "_data",
          "type": "bytes"
        }
      ],
      "name": "safeTransferFrom",
      "outputs": [],
      "stateMutability": "nonpayable",
      "type": "function"
    },
    {
      "inputs": [
        {
          "internalType": "uint256",
          "name": "id",
          "type": "uint256"
        },
        {
          "internalType": "string",
          "name": "uri",
          "type": "string"
        }
      ],
      "name": "setAndLockDomainMetadata",
      "outputs": [],
      "stateMutability": "nonpayable",
      "type": "function"
    },
    {
      "inputs": [
        {
          "internalType": "address",
          "name": "operator",
          "type": "address"
        },
        {
          "internalType": "bool",
          "name": "approved",
          "type": "bool"
        }
      ],
      "name": "setApprovalForAll",
      "outputs": [],
      "stateMutability": "nonpayable",
      "type": "function"
    },
    {
      "inputs": [
        {
          "internalType": "uint256",
          "name": "id",
          "type": "uint256"
        },
        {
          "internalType": "string",
          "name": "uri",
          "type": "string"
        }
      ],
      "name": "setDomainMetadataUri",
      "outputs": [],
      "stateMutability": "nonpayable",
      "type": "function"
    },
    {
      "inputs": [
        {
          "internalType": "uint256",
          "name": "id",
          "type": "uint256"
        },
        {
          "internalType": "uint256",
          "name": "amount",
          "type": "uint256"
        }
      ],
      "name": "setDomainRoyaltyAmount",
      "outputs": [],
      "stateMutability": "nonpayable",
      "type": "function"
    },
    {
      "inputs": [
        {
          "internalType": "contract IZNSHub",
          "name": "hub",
          "type": "address"
        }
      ],
      "name": "setZNSHub",
      "outputs": [],
      "stateMutability": "nonpayable",
      "type": "function"
    },
    {
      "inputs": [
        {
          "internalType": "bytes4",
          "name": "interfaceId",
          "type": "bytes4"
        }
      ],
      "name": "supportsInterface",
      "outputs": [
        {
          "internalType": "bool",
          "name": "",
          "type": "bool"
        }
      ],
      "stateMutability": "view",
      "type": "function"
    },
    {
      "inputs": [],
      "name": "symbol",
      "outputs": [
        {
          "internalType": "string",
          "name": "",
          "type": "string"
        }
      ],
      "stateMutability": "view",
      "type": "function"
    },
    {
      "inputs": [
        {
          "internalType": "uint256",
          "name": "index",
          "type": "uint256"
        }
      ],
      "name": "tokenByIndex",
      "outputs": [
        {
          "internalType": "uint256",
          "name": "",
          "type": "uint256"
        }
      ],
      "stateMutability": "view",
      "type": "function"
    },
    {
      "inputs": [
        {
          "internalType": "address",
          "name": "owner",
          "type": "address"
        },
        {
          "internalType": "uint256",
          "name": "index",
          "type": "uint256"
        }
      ],
      "name": "tokenOfOwnerByIndex",
      "outputs": [
        {
          "internalType": "uint256",
          "name": "",
          "type": "uint256"
        }
      ],
      "stateMutability": "view",
      "type": "function"
    },
    {
      "inputs": [
        {
          "internalType": "uint256",
          "name": "tokenId",
          "type": "uint256"
        }
      ],
      "name": "tokenURI",
      "outputs": [
        {
          "internalType": "string",
          "name": "",
          "type": "string"
        }
      ],
      "stateMutability": "view",
      "type": "function"
    },
    {
      "inputs": [],
      "name": "totalSupply",
      "outputs": [
        {
          "internalType": "uint256",
          "name": "",
          "type": "uint256"
        }
      ],
      "stateMutability": "view",
      "type": "function"
    },
    {
      "inputs": [
        {
          "internalType": "address",
          "name": "from",
          "type": "address"
        },
        {
          "internalType": "address",
          "name": "to",
          "type": "address"
        },
        {
          "internalType": "uint256",
          "name": "tokenId",
          "type": "uint256"
        }
      ],
      "name": "transferFrom",
      "outputs": [],
      "stateMutability": "nonpayable",
      "type": "function"
    },
    {
      "inputs": [
        {
          "internalType": "address",
          "name": "from",
          "type": "address"
        },
        {
          "internalType": "address",
          "name": "to",
          "type": "address"
        },
        {
          "internalType": "uint256[]",
          "name": "tokenIds",
          "type": "uint256[]"
        }
      ],
      "name": "transferFromBulk",
      "outputs": [],
      "stateMutability": "nonpayable",
      "type": "function"
    },
    {
      "inputs": [
        {
          "internalType": "address",
          "name": "newOwner",
          "type": "address"
        }
      ],
      "name": "transferOwnership",
      "outputs": [],
      "stateMutability": "nonpayable",
      "type": "function"
    },
    {
      "inputs": [],
      "name": "unpause",
      "outputs": [],
      "stateMutability": "nonpayable",
      "type": "function"
    },
    {
      "inputs": [
        {
          "internalType": "uint256",
          "name": "id",
          "type": "uint256"
        },
        {
          "internalType": "string",
          "name": "baseMetadataUri",
          "type": "string"
        }
      ],
      "name": "updateDomainGroup",
      "outputs": [],
      "stateMutability": "nonpayable",
      "type": "function"
    },
    {
      "inputs": [],
      "name": "zNSHub",
      "outputs": [
        {
          "internalType": "contract IZNSHub",
          "name": "",
          "type": "address"
        }
      ],
      "stateMutability": "view",
      "type": "function"
    }
  ],
  "bytecode": "0x608060405234801561001057600080fd5b50615b28806100206000396000f3fe60806040523480156200001157600080fd5b5060043610620003fd5760003560e01c80637da111fe116200021d578063b88d4fde1162000131578063e985e9c511620000bb578063f6a74ed71162000086578063f6a74ed71462000a5c578063fb27cfe11462000a73578063fb7b395e1462000a8a578063fda9b94a1462000a9557600080fd5b8063e985e9c514620009d8578063ea0458041462000a17578063ec62558d1462000a2e578063f2fde38b1462000a4557600080fd5b8063cfa3c13211620000fc578063cfa3c132146200096c578063d428bc771462000983578063da72c1e8146200099a578063da8c229e14620009b157600080fd5b8063b88d4fde1462000910578063be21eccd1462000927578063be25304e146200093e578063c87b56dd146200095557600080fd5b80639083709a11620001b3578063a22cb465116200017e578063a22cb465146200089b578063a7fc7a0714620008b2578063aca05acc14620008c9578063b429afeb14620008e057600080fd5b80639083709a146200083657806395d89b41146200084d5780639c4f6c6d14620008575780639e942ace146200086e57600080fd5b80638456cb5911620001f45780638456cb5914620007f45780638597cc3a14620007fe5780638da5cb5b14620008155780638de2dec9146200081f57600080fd5b80637da111fe14620007965780637efcc90d14620007ad5780637f861b1a14620007dd57600080fd5b806337aa32ba116200031557806359659e9011620002ab5780636c0360eb11620002765780636c0360eb146200074457806370a08231146200074e578063715018a614620007655780637ad3e55b146200076f57600080fd5b806359659e9014620006dc5780635c975abb14620006f1578063620e42ea14620006fd5780636352211e146200072d57600080fd5b806341d01e7c11620002ec57806341d01e7c146200068157806341f43434146200069857806342842e0e14620006ae5780634f6ccce714620006c557600080fd5b806337aa32ba146200064d5780633a47040f14620006625780633f4ba83a146200067757600080fd5b8063165b7d8311620003975780632b883d5111620003625780632b883d5114620005405780632f745c59146200055757806334038d48146200056e57806334461067146200058557600080fd5b8063165b7d8314620004ee57806318160ddd146200050857806323b872dd14620005125780632566193f146200052957600080fd5b8063081812fc11620003d8578063081812fc1462000479578063095ea7b314620004a95780630bfb66c514620004c05780630cea648214620004d757600080fd5b806301ffc9a71462000402578063059fb6f7146200044757806306fdde031462000460575b600080fd5b62000432620004133660046200435b565b6001600160e01b03191660009081526033602052604090205460ff1690565b60405190151581526020015b60405180910390f35b6200045e6200045836600462004391565b62000aac565b005b6200046a62000b31565b6040516200043e91906200448b565b620004906200048a366004620044a0565b62000bcb565b6040516001600160a01b0390911681526020016200043e565b6200045e620004ba366004620044ba565b62000c5b565b6200045e620004d1366004620045b2565b62000c76565b6200045e620004e836600462004609565b62000d1c565b620004f96101355481565b6040519081526020016200043e565b620004f962000dcd565b6200045e6200052336600462004681565b62000de0565b6200045e6200053a366004620046c7565b62000e1c565b6200045e62000551366004620046ea565b62000ed4565b620004f962000568366004620044ba565b62000fe2565b620004f96200057f36600462004743565b6200100f565b620005f262000596366004620044a0565b61012e60205260009081526040902080546001820154600283015460038401546004850154600586015460068701546007909701546001600160a01b0380881698600160a01b90980460ff169796811696958116959216919089565b604080516001600160a01b039a8b16815298151560208a0152968916968801969096529387166060870152608086019290925260a085015290931660c083015260e0820192909252610100810191909152610120016200043e565b6101315462000490906001600160a01b031681565b6101325462000490906001600160a01b031681565b6200045e62001058565b6200045e62000692366004620046ea565b62001098565b620004906daaeb6d7670e522a718067333cd4e81565b6200045e620006bf36600462004681565b620010d9565b620004f9620006d6366004620044a0565b620010f6565b61012f5462000490906001600160a01b031681565b60c95460ff1662000432565b620004906200070e366004620044a0565b600090815261012e60205260409020600101546001600160a01b031690565b620004906200073e366004620044a0565b6200110e565b6200046a620011bd565b620004f96200075f36600462004802565b620011ce565b6200045e6200125e565b620004f962000780366004620044a0565b600090815261012e602052604090206003015490565b6200045e620007a7366004620046ea565b620012dc565b62000490620007be366004620044a0565b600090815261012e60205260409020600201546001600160a01b031690565b6200045e620007ee36600462004822565b62001310565b6200045e6200139e565b620004f96200080f36600462004901565b620013dc565b62000490620014c5565b6200043262000830366004620044a0565b62001537565b6200045e6200084736600462004939565b62001544565b6200046a620015dd565b6200045e62000868366004620049c4565b620015ee565b620004906200087f366004620044a0565b600090815261012e60205260409020546001600160a01b031690565b6200045e620008ac366004620049f7565b62001607565b6200045e620008c336600462004802565b6200161e565b620004f9620008da36600462004a2a565b620016fe565b62000432620008f136600462004802565b6001600160a01b0316600090815261012d602052604090205460ff1690565b6200045e6200092136600462004ad3565b62001725565b6200043262000938366004620044a0565b6200175e565b620004f96200094f36600462004743565b6200177b565b6200046a62000966366004620044a0565b620019d2565b620004f96200097d366004620044a0565b62001a80565b6200045e62000994366004620046ea565b62001ac1565b6200045e620009ab36600462004681565b62001b10565b62000432620009c236600462004802565b61012d6020526000908152604090205460ff1681565b62000432620009e936600462004b5b565b6001600160a01b039182166000908152609b6020908152604080832093909416825291909152205460ff1690565b6200045e62000a2836600462004802565b62001b44565b6200045e62000a3f366004620044a0565b62001b9b565b6200045e62000a5636600462004802565b62001c3c565b6200045e62000a6d36600462004802565b62001d33565b6200046a62000a84366004620044a0565b62001e43565b620004f96101305481565b6200045e62000aa636600462004bd2565b62001eea565b60005b8181101562000b2a57600083838381811062000acf5762000acf62004c6c565b90506020020135905062000aeb62000ae43390565b8262002075565b62000b095760405163390cdd9b60e21b815260040160405180910390fd5b62000b1686868362002169565b5062000b228162004c98565b905062000aaf565b5050505050565b6060609c805462000b429062004cb4565b80601f016020809104026020016040519081016040528092919081815260200182805462000b709062004cb4565b801562000bc15780601f1062000b955761010080835404028352916020019162000bc1565b820191906000526020600020905b81548152906001019060200180831162000ba357829003601f168201915b5050505050905090565b600062000bd882620021f8565b62000c3f5760405162461bcd60e51b815260206004820152602c60248201527f4552433732313a20617070726f76656420717565727920666f72206e6f6e657860448201526b34b9ba32b73a103a37b5b2b760a11b60648201526084015b60405180910390fd5b506000908152609a60205260409020546001600160a01b031690565b62000c668262002207565b62000c728282620022b3565b5050565b3362000c81620014c5565b6001600160a01b03161462000caa5760405162461bcd60e51b815260040162000c369062004cf0565b60005b8181101562000b2a5762000d0962000cca620006d6838762004d25565b8662000ce162000cdb858862004d25565b620023ce565b60405160200162000cf492919062004d40565b6040516020818303038152906040526200250b565b62000d148162004c98565b905062000cad565b62000d26620025f9565b84841162000d4757604051638ebe8aeb60e01b815260040160405180910390fd5b6000855b8581101562000dc15762000d858a62000d6962000cdb8b8562004d25565b87604051806020016040528060008152508860018f88620026a9565b9150846001600160a01b0316836001600160a01b03161462000dae5762000dae85848462002169565b62000db98162004c98565b905062000d4b565b50505050505050505050565b600062000ddb6098620028bf565b905090565b62000deb3362000ae4565b62000e0a5760405162461bcd60e51b815260040162000c369062004d73565b62000e1783838362002169565b505050565b62000e2782620028ca565b62000e32826200175e565b1562000e515760405163403e7c7160e11b815260040160405180910390fd5b600082815261012e602052604090819020600301829055610132549051636f88668760e11b815260048101849052602481018390526001600160a01b039091169063df10cd0e906044015b600060405180830381600087803b15801562000eb757600080fd5b505af115801562000ecc573d6000803e3d6000fd5b505050505050565b62000ede620025f9565b81158062000eee57506101355482115b1562000f0d5760405163525de29960e11b815260040160405180910390fd5b8060405160200162000f20919062004dc4565b60408051601f1981840301815282825280516020918201206000868152610134835292909220919262000f5592910162004e83565b604051602081830303815290604052805190602001200362000f8a57604051634b4fb81760e01b815260040160405180910390fd5b600082815261013460209081526040909120825162000fac9284019062004256565b506101325460405163382d437b60e21b81526001600160a01b039091169063e0b50dec9062000e9c908590859060040162004e91565b6001600160a01b0382166000908152609760205260408120620010069083620028fe565b90505b92915050565b60006200101b620025f9565b60006200102d8989898989896200290c565b90506200104c8784836040518060200160405280600081525062002921565b98975050505050505050565b3362001063620014c5565b6001600160a01b0316146200108c5760405162461bcd60e51b815260040162000c369062004cf0565b62001096620029a5565b565b620010a382620028ca565b620010ae826200175e565b15620010cd5760405163403e7c7160e11b815260040160405180910390fd5b62000c7282826200250b565b62000e178383836040518060200160405280600081525062001725565b6000806200110660988462002a3a565b509392505050565b60006200111d60988362002a5a565b156200114c57620010098260405180606001604052806029815260200162005aca602991396098919062002a73565b610132546040516331a9108f60e11b8152600481018490526001600160a01b0390911690636352211e90602401602060405180830381865afa15801562001197573d6000803e3d6000fd5b505050506040513d601f19601f8201168201806040525081019062001009919062004eac565b6060609f805462000b429062004cb4565b60006001600160a01b0382166200123b5760405162461bcd60e51b815260206004820152602a60248201527f4552433732313a2062616c616e636520717565727920666f7220746865207a65604482015269726f206164647265737360b01b606482015260840162000c36565b6001600160a01b03821660009081526097602052604090206200100990620028bf565b3362001269620014c5565b6001600160a01b031614620012925760405162461bcd60e51b815260040162000c369062004cf0565b6065546040516000916001600160a01b0316907f8be0079c531659141344cd1fd0a4f28419497f9722a3daafe3b4186f6b6457e0908390a3606580546001600160a01b0319169055565b33620012e7620014c5565b6001600160a01b031614620010cd5760405162461bcd60e51b815260040162000c369062004cf0565b336200131b620014c5565b6001600160a01b031614620013445760405162461bcd60e51b815260040162000c369062004cf0565b60005b82518110156200139857620013858382815181106200136a576200136a62004c6c565b60200260200101518562000ce1848662000cdb919062004d25565b620013908162004c98565b905062001347565b50505050565b33620013a9620014c5565b6001600160a01b031614620013d25760405162461bcd60e51b815260040162000c369062004cf0565b6200109662002a8c565b6000620013e8620025f9565b60405180602001604052808381525061013460006101355460016200140e919062004d25565b8152602080820192909252604001600020825180519192620014369284929091019062004256565b50905050610135600081546200144c9062004c98565b90915550610132546101355460405163382d437b60e21b81526001600160a01b039092169163e0b50dec916200148791869060040162004e91565b600060405180830381600087803b158015620014a257600080fd5b505af1158015620014b7573d6000803e3d6000fd5b505061013554949350505050565b6101325460408051638da5cb5b60e01b815290516000926001600160a01b031691638da5cb5b9160048083019260209291908290030181865afa15801562001511573d6000803e3d6000fd5b505050506040513d601f19601f8201168201806040525081019062000ddb919062004eac565b60006200100982620021f8565b6200154e620025f9565b8585116200156f57604051638ebe8aeb60e01b815260040160405180910390fd5b6000865b8681101562000dc157620015c88a6200159162000cdb8c8562004d25565b88886200159e86620023ce565b604051602001620015b192919062004d40565b60405160208183030381529060405288886200290c565b9150620015d58162004c98565b905062001573565b6060609d805462000b429062004cb4565b620015fa828262002b0a565b62000c7282338362002bd4565b620016128262002207565b62000c72828262002c5c565b62001628620014c5565b6001600160a01b0316336001600160a01b031614158015620016565750610131546001600160a01b03163314155b15620016755760405163ea8e4eb560e01b815260040160405180910390fd5b6001600160a01b038116600090815261012d602052604090205460ff1615620016b157604051631e4653fb60e11b815260040160405180910390fd5b6001600160a01b038116600081815261012d6020526040808220805460ff19166001179055517f0a8bb31534c0ed46f380cb867bd5c803a189ced9a764e30b3a4991a9901d74749190a250565b60006200170a620025f9565b6200171a8787878787876200290c565b979650505050505050565b62001731338362002075565b620017505760405162461bcd60e51b815260040162000c369062004d73565b620013988484848462002921565b600090815261012e6020526040902054600160a01b900460ff1690565b600062001787620025f9565b6000620017998989898989896200290c565b9050600061013260009054906101000a90046001600160a01b03166001600160a01b031663e1cc84906040518163ffffffff1660e01b8152600401602060405180830381865afa158015620017f2573d6000803e3d6000fd5b505050506040513d601f19601f8201168201806040525081019062001818919062004eac565b6040516200182690620042e5565b6001600160a01b039091168152604060208201819052600090820152606001604051809103906000f08015801562001862573d6000803e3d6000fd5b5061013254604051637ed4dca560e11b81523060048201526024810185905260a06044820152601160a4820152705a657230204e616d65205365727669636560781b60c482015260e06064820152600360e4820152625a4e5360e81b6101048201526001600160a01b03918216608482015291925082169063fda9b94a9061012401600060405180830381600087803b158015620018ff57600080fd5b505af115801562001914573d6000803e3d6000fd5b505050600083815261012e60205260409081902060050180546001600160a01b0319166001600160a01b03858116918217909255610132549251633f7baeb960e01b815260048101879052602481019190915291169150633f7baeb990604401600060405180830381600087803b1580156200198f57600080fd5b505af1158015620019a4573d6000803e3d6000fd5b50505050620019c58885846040518060200160405280600081525062002921565b5098975050505050505050565b6060620019df82620021f8565b620019fc5760405162ff468560e01b815260040160405180910390fd5b600082815261012e60205260409020600601541562001a7557600082815261012e60208181526040808420600681015485526101348352908420938690529190526007015462001a4c90620023ce565b60405160200162001a5f92919062004ecc565b6040516020818303038152906040529050919050565b620010098262002d22565b600062001a8d82620021f8565b62001aaa5760405162ff468560e01b815260040160405180910390fd5b50600090815261012e602052604090206004015490565b62001acc82620028ca565b62001ad7826200175e565b1562001af65760405163403e7c7160e11b815260040160405180910390fd5b62001b0282826200250b565b62000c728233600162002bd4565b3362001b1b620014c5565b6001600160a01b03161462000e0a5760405162461bcd60e51b815260040162000c369062004cf0565b3362001b4f620014c5565b6001600160a01b03161462001b785760405162461bcd60e51b815260040162000c369062004cf0565b61013280546001600160a01b0319166001600160a01b0392909216919091179055565b3362001ba6620014c5565b6001600160a01b03161462001bcf5760405162461bcd60e51b815260040162000c369062004cf0565b62001bda8162002ea9565b600090815261012e6020526040812080546001600160a81b03191681556001810180546001600160a01b031990811690915560028201805482169055600382018390556004820183905560058201805490911690556006810182905560070155565b3362001c47620014c5565b6001600160a01b03161462001c705760405162461bcd60e51b815260040162000c369062004cf0565b6001600160a01b03811662001cd75760405162461bcd60e51b815260206004820152602660248201527f4f776e61626c653a206e6577206f776e657220697320746865207a65726f206160448201526564647265737360d01b606482015260840162000c36565b6065546040516001600160a01b038084169216907f8be0079c531659141344cd1fd0a4f28419497f9722a3daafe3b4186f6b6457e090600090a3606580546001600160a01b0319166001600160a01b0392909216919091179055565b3362001d3e620014c5565b6001600160a01b03161462001d675760405162461bcd60e51b815260040162000c369062004cf0565b62001d71620014c5565b6001600160a01b0316336001600160a01b03161415801562001d9f5750610131546001600160a01b03163314155b1562001dbe5760405163ea8e4eb560e01b815260040160405180910390fd5b6001600160a01b038116600090815261012d602052604090205460ff1662001df9576040516314e24e6d60e31b815260040160405180910390fd5b6001600160a01b038116600081815261012d6020526040808220805460ff19169055517f33d83959be2573f5453b12eb9d43b3499bc57d96bd2f067ba44803c859e811139190a250565b6101346020526000908152604090208054819062001e619062004cb4565b80601f016020809104026020016040519081016040528092919081815260200182805462001e8f9062004cb4565b801562001ee05780601f1062001eb45761010080835404028352916020019162001ee0565b820191906000526020600020905b81548152906001019060200180831162001ec257829003601f168201915b5050505050905081565b600054610100900460ff168062001f005750303b155b8062001f0f575060005460ff16155b62001f2e5760405162461bcd60e51b815260040162000c369062004eec565b600054610100900460ff1615801562001f51576000805461ffff19166101011790555b6001600160a01b03881662001f795762001f7360008033600080600062002f7e565b62001f9c565b61013087905561013180546001600160a01b0319166001600160a01b038a161790555b61013280546001600160a01b0319166001600160a01b03841617905562001fc262003072565b6200203786868080601f01602080910402602001604051908101604052809392919081815260200183838082843760009201919091525050604080516020601f8a0181900481028201810190925288815292508891508790819084018382808284376000920191909152506200311692505050565b62002058733cc6cdda760b79bafa08df41ecfa224f810dceb66001620031b4565b80156200206b576000805461ff00191690555b5050505050505050565b60006200208282620021f8565b620020e55760405162461bcd60e51b815260206004820152602c60248201527f4552433732313a206f70657261746f7220717565727920666f72206e6f6e657860448201526b34b9ba32b73a103a37b5b2b760a11b606482015260840162000c36565b6000620020f2836200327f565b9050806001600160a01b0316846001600160a01b03161480620021305750836001600160a01b0316620021258462000bcb565b6001600160a01b0316145b806200216157506001600160a01b038082166000908152609b602090815260408083209388168352929052205460ff165b949350505050565b6200217483620032aa565b6200218183838362003355565b61013254604051631c9f41b760e11b81526001600160a01b0385811660048301528481166024830152604482018490529091169063393e836e906064015b600060405180830381600087803b158015620021da57600080fd5b505af1158015620021ef573d6000803e3d6000fd5b50505050505050565b60006200100960988362002a5a565b604051633185c44d60e21b81523060048201526001600160a01b03821660248201526daaeb6d7670e522a718067333cd4e9063c617113490604401602060405180830381865afa15801562002260573d6000803e3d6000fd5b505050506040513d601f19601f8201168201806040525081019062002286919062004f3a565b620022b057604051633b79c77360e21b81526001600160a01b038216600482015260240162000c36565b50565b6000620022c0826200327f565b9050806001600160a01b0316836001600160a01b0316036200232f5760405162461bcd60e51b815260206004820152602160248201527f4552433732313a20617070726f76616c20746f2063757272656e74206f776e656044820152603960f91b606482015260840162000c36565b336001600160a01b03821614806200234e57506200234e8133620009e9565b620023c25760405162461bcd60e51b815260206004820152603860248201527f4552433732313a20617070726f76652063616c6c6572206973206e6f74206f7760448201527f6e6572206e6f7220617070726f76656420666f7220616c6c0000000000000000606482015260840162000c36565b62000e178383620034f1565b606081600003620023f65750506040805180820190915260018152600360fc1b602082015290565b8160005b81156200242657806200240d8162004c98565b91506200241e9050600a8362004f70565b9150620023fa565b6000816001600160401b03811115620024435762002443620044e9565b6040519080825280601f01601f1916602001820160405280156200246e576020820181803683370190505b5090505b841562002161576200248660018362004f87565b9150600062002497600a8762004f70565b620024a490600a62004fa1565b620024b0908762004f87565b620024bd90603062004fc3565b905060008160f81b905080838581518110620024dd57620024dd62004c6c565b60200101906001600160f81b031916908160001a90535062002501600a8862004f70565b9650505062002472565b600082815261012e6020526040902060060154156200253d57604051635b8b67bb60e01b815260040160405180910390fd5b8060405160200162002550919062004dc4565b604051602081830303815290604052805190602001206200257183620019d2565b60405160200162002583919062004dc4565b6040516020818303038152906040528051906020012003620025b8576040516332723a2960e01b815260040160405180910390fd5b620025c4828262003561565b610132546040516302e76c3560e31b81526001600160a01b039091169063173b61a89062000e9c908590859060040162004e91565b33600090815261012d602052604090205460ff161580156200268a57506101325460405163b429afeb60e01b81523360048201526001600160a01b039091169063b429afeb906024016020604051808303816000875af115801562002662573d6000803e3d6000fd5b505050506040513d601f19601f8201168201806040525081019062002688919062004f3a565b155b1562001096576040516323019e6760e01b815260040160405180910390fd5b60008751600003620026ce57604051632f60176160e01b815260040160405180910390fd5b600089815261012e60205260409020600501546001600160a01b0316156200270957604051631bb5f58b60e11b815260040160405180910390fd5b610135548311156200272e5760405163017f672360e51b815260040160405180910390fd5b6101305489141580156200274a57506200274889620021f8565b155b15620027695760405163d169740760e01b815260040160405180910390fd5b87516020808a0191909120604080518084018d905280820183905281518082038301815260609091019091528051920191909120620027ad8b828b33898962002f7e565b8515620027f457600081815261012e602052604090206001810180546001600160a01b038c166001600160a01b0319909116179055805460ff60a01b1916600160a01b1790555b86156200281157600081815261012e602052604090206003018790555b84600003620028265762002826818962003561565b61013260009054906101000a90046001600160a01b03166001600160a01b0316638e831d9e828c858f8e338f8f8e8e6040518b63ffffffff1660e01b81526004016200287c9a9998979695949392919062004feb565b600060405180830381600087803b1580156200289757600080fd5b505af1158015620028ac573d6000803e3d6000fd5b50929d9c50505050505050505050505050565b600062001009825490565b33620028d6826200110e565b6001600160a01b031614620022b0576040516326fdee4b60e11b815260040160405180910390fd5b600062001006838362003582565b60006200171a878787878787600080620026a9565b6200292e84848462002169565b6200293c848484846200360d565b620013985760405162461bcd60e51b815260206004820152603260248201527f4552433732313a207472616e7366657220746f206e6f6e20455243373231526560448201527131b2b4bb32b91034b6b83632b6b2b73a32b960711b606482015260840162000c36565b60c95460ff16620029f05760405162461bcd60e51b815260206004820152601460248201527314185d5cd8589b194e881b9bdd081c185d5cd95960621b604482015260640162000c36565b60c9805460ff191690557f5db9ee0a495bf2e6ff9c91a7834c1ba4fdd244a5e8aa4e537bd38aeae4b073aa335b6040516001600160a01b03909116815260200160405180910390a1565b600080808062002a4b8686620036e7565b909450925050505b9250929050565b6000818152600183016020526040812054151562001006565b600062002a8284848462003789565b90505b9392505050565b60c95460ff161562002ad45760405162461bcd60e51b815260206004820152601060248201526f14185d5cd8589b194e881c185d5cd95960821b604482015260640162000c36565b60c9805460ff191660011790557f62e78cea01bee320cd4e420270b5ea74000d11b0c9f74754ebdbfc544b05a25862002a1d3390565b801562002b6f573362002b1d836200110e565b6001600160a01b03161462002b45576040516326fdee4b60e11b815260040160405180910390fd5b62002b50826200175e565b1562000c725760405163403e7c7160e11b815260040160405180910390fd5b62002b7a826200175e565b62002b98576040516335ce349d60e21b815260040160405180910390fd5b600082815261012e60205260409020600101546001600160a01b0316331462000c725760405163376b6f4b60e21b815260040160405180910390fd5b600083815261012e6020526040908190206001810180546001600160a01b0319166001600160a01b03868116918217909255825460ff60a01b1916600160a01b8615159081029190911790935561013254935163e43ad7d560e01b81526004810188905260248101919091526044810192909252919091169063e43ad7d590606401620021bf565b336001600160a01b0383160362002cb65760405162461bcd60e51b815260206004820152601960248201527f4552433732313a20617070726f766520746f2063616c6c657200000000000000604482015260640162000c36565b336000818152609b602090815260408083206001600160a01b03871680855290835292819020805460ff191686151590811790915590519081529192917f17307eab39ab6107e8899845ad3d59bd9653f200f220920489ca2b5937696c31910160405180910390a35050565b606062002d2f82620021f8565b62002d955760405162461bcd60e51b815260206004820152602f60248201527f4552433732314d657461646174613a2055524920717565727920666f72206e6f60448201526e3732bc34b9ba32b73a103a37b5b2b760891b606482015260840162000c36565b6000828152609e60205260408120805462002db09062004cb4565b80601f016020809104026020016040519081016040528092919081815260200182805462002dde9062004cb4565b801562002e2f5780601f1062002e035761010080835404028352916020019162002e2f565b820191906000526020600020905b81548152906001019060200180831162002e1157829003601f168201915b50505050509050600062002e42620011bd565b9050805160000362002e55575092915050565b81511562002e8a57808260405160200162002e7292919062004d40565b60405160208183030381529060405292505050919050565b8062002e9685620037fa565b60405160200162002e7292919062004d40565b600062002eb6826200327f565b905062002ec6816000846200392d565b62002ed3600083620034f1565b6000828152609e60205260409020805462002eee9062004cb4565b15905062002f0f576000828152609e6020526040812062002f0f91620042f3565b6001600160a01b038116600090815260976020526040902062002f33908362003996565b5062002f41609883620039a4565b5060405182906000906001600160a01b038416907fddf252ad1be2c89b69c2b068fc378daa952ba7f163c4a11628f55a4df523b3ef908390a45050565b62002f8a8486620039b2565b60408051610120810182526001600160a01b03958616815260006020808301828152838501838152978916606085019081526080850184815260a086019c8d5260c0860185815260e08701998a5261010087019889529b855261012e909352949092209251835492511515600160a01b026001600160a81b03199093169089161791909117825594516001820180549188166001600160a01b0319928316179055915160028201805491881691841691909117905593516003850155955160048401559351600583018054919094169516949094179091559151600683015551600790910155565b600054610100900460ff1680620030885750303b155b8062003097575060005460ff16155b620030b65760405162461bcd60e51b815260040162000c369062004eec565b600054610100900460ff16158015620030d9576000805461ffff19166101011790555b620030e362003ae2565b620030ed62003b5d565b620030f762003bd6565b6200310162003ae2565b8015620022b0576000805461ff001916905550565b600054610100900460ff16806200312c5750303b155b806200313b575060005460ff16155b6200315a5760405162461bcd60e51b815260040162000c369062004eec565b600054610100900460ff161580156200317d576000805461ffff19166101011790555b6200318762003ae2565b6200319162003b5d565b6200319d838362003c5c565b801562000e17576000805461ff0019169055505050565b8015620031fc57604051633e9f1edf60e11b81523060048201526001600160a01b03831660248201526daaeb6d7670e522a718067333cd4e90637d3e3dbe9060440162000e9c565b6001600160a01b038216156200324d5760405163a0af290360e01b81523060048201526001600160a01b03831660248201526daaeb6d7670e522a718067333cd4e9063a0af29039060440162000e9c565b604051632210724360e11b81523060048201526daaeb6d7670e522a718067333cd4e90634420e4869060240162000e9c565b6000620010098260405180606001604052806029815260200162005aca602991396098919062002a73565b336001600160a01b03821603620032be5750565b604051633185c44d60e21b81523060048201523360248201526daaeb6d7670e522a718067333cd4e9063c617113490604401602060405180830381865afa1580156200330e573d6000803e3d6000fd5b505050506040513d601f19601f8201168201806040525081019062003334919062004f3a565b620022b057604051633b79c77360e21b815233600482015260240162000c36565b826001600160a01b03166200336a826200327f565b6001600160a01b031614620033d45760405162461bcd60e51b815260206004820152602960248201527f4552433732313a207472616e73666572206f6620746f6b656e2074686174206960448201526839903737ba1037bbb760b91b606482015260840162000c36565b6001600160a01b038216620034385760405162461bcd60e51b8152602060048201526024808201527f4552433732313a207472616e7366657220746f20746865207a65726f206164646044820152637265737360e01b606482015260840162000c36565b620034458383836200392d565b62003452600082620034f1565b6001600160a01b038316600090815260976020526040902062003476908262003996565b506001600160a01b03821660009081526097602052604090206200349b908262003d25565b50620034aa6098828462003d33565b5080826001600160a01b0316846001600160a01b03167fddf252ad1be2c89b69c2b068fc378daa952ba7f163c4a11628f55a4df523b3ef60405160405180910390a4505050565b6000818152609a6020526040902080546001600160a01b0319166001600160a01b038416908117909155819062003528826200327f565b6001600160a01b03167f8c5be1e5ebec7d5bd14f71427d1e84f3dd0314c0f7b2291e5b200ac8c7c3b92560405160405180910390a45050565b6000828152609e60209081526040909120825162000e179284019062004256565b81546000908210620035e25760405162461bcd60e51b815260206004820152602260248201527f456e756d657261626c655365743a20696e646578206f7574206f6620626f756e604482015261647360f01b606482015260840162000c36565b826000018281548110620035fa57620035fa62004c6c565b9060005260206000200154905092915050565b60006001600160a01b0384163b620036285750600162002161565b6000620036ae630a85bd0160e11b338887876040516024016200364f949392919062005067565b604051602081830303815290604052906001600160e01b0319166020820180516001600160e01b03838183161783525050505060405180606001604052806032815260200162005a98603291396001600160a01b038816919062003d4b565b9050600081806020019051810190620036c89190620050a6565b6001600160e01b031916630a85bd0160e11b1492505050949350505050565b815460009081908310620037495760405162461bcd60e51b815260206004820152602260248201527f456e756d657261626c654d61703a20696e646578206f7574206f6620626f756e604482015261647360f01b606482015260840162000c36565b600084600001848154811062003763576200376362004c6c565b906000526020600020906002020190508060000154816001015492509250509250929050565b60008281526001840160205260408120548281620037bc5760405162461bcd60e51b815260040162000c3691906200448b565b5084620037cb60018362004f87565b81548110620037de57620037de62004c6c565b9060005260206000209060020201600101549150509392505050565b606081600003620038225750506040805180820190915260018152600360fc1b602082015290565b8160005b8115620038525780620038398162004c98565b91506200384a9050600a8362004f70565b915062003826565b6000816001600160401b038111156200386f576200386f620044e9565b6040519080825280601f01601f1916602001820160405280156200389a576020820181803683370190505b5090506000620038ac60018462004f87565b90508593505b83156200392457620038c6600a85620050c6565b620038d390603062004d25565b60f81b8282620038e381620050dd565b935081518110620038f857620038f862004c6c565b60200101906001600160f81b031916908160001a9053506200391c600a8562004f70565b9350620038b2565b50949350505050565b60c95460ff161562000e175760405162461bcd60e51b815260206004820152602b60248201527f4552433732315061757361626c653a20746f6b656e207472616e73666572207760448201526a1a1a5b19481c185d5cd95960aa1b606482015260840162000c36565b600062001006838362003d5c565b600062001006838362003e61565b6001600160a01b03821662003a0a5760405162461bcd60e51b815260206004820181905260248201527f4552433732313a206d696e7420746f20746865207a65726f2061646472657373604482015260640162000c36565b62003a1581620021f8565b1562003a645760405162461bcd60e51b815260206004820152601c60248201527f4552433732313a20746f6b656e20616c7265616479206d696e74656400000000604482015260640162000c36565b62003a72600083836200392d565b6001600160a01b038216600090815260976020526040902062003a96908262003d25565b5062003aa56098828462003d33565b5060405181906001600160a01b038416906000907fddf252ad1be2c89b69c2b068fc378daa952ba7f163c4a11628f55a4df523b3ef908290a45050565b600054610100900460ff168062003af85750303b155b8062003b07575060005460ff16155b62003b265760405162461bcd60e51b815260040162000c369062004eec565b600054610100900460ff1615801562003101576000805461ffff19166101011790558015620022b0576000805461ff001916905550565b600054610100900460ff168062003b735750303b155b8062003b82575060005460ff16155b62003ba15760405162461bcd60e51b815260040162000c369062004eec565b600054610100900460ff1615801562003bc4576000805461ffff19166101011790555b620031016301ffc9a760e01b62003f79565b600054610100900460ff168062003bec5750303b155b8062003bfb575060005460ff16155b62003c1a5760405162461bcd60e51b815260040162000c369062004eec565b600054610100900460ff1615801562003c3d576000805461ffff19166101011790555b60c9805460ff191690558015620022b0576000805461ff001916905550565b600054610100900460ff168062003c725750303b155b8062003c81575060005460ff16155b62003ca05760405162461bcd60e51b815260040162000c369062004eec565b600054610100900460ff1615801562003cc3576000805461ffff19166101011790555b825162003cd890609c90602086019062004256565b50815162003cee90609d90602085019062004256565b5062003d016380ac58cd60e01b62003f79565b62003d13635b5e139f60e01b62003f79565b6200319d63780e9d6360e01b62003f79565b600062001006838362003ffa565b600062002a8284846001600160a01b0385166200404c565b606062002a828484600085620040f7565b6000818152600183016020526040812054801562003e5657600062003d8360018362004f87565b855490915060009062003d999060019062004f87565b9050600086600001828154811062003db55762003db562004c6c565b906000526020600020015490508087600001848154811062003ddb5762003ddb62004c6c565b60009182526020909120015562003df483600162004d25565b6000828152600189016020526040902055865487908062003e195762003e19620050f7565b6001900381819060005260206000200160009055905586600101600087815260200190815260200160002060009055600194505050505062001009565b600091505062001009565b6000818152600183016020526040812054801562003e5657600062003e8860018362004f87565b855490915060009062003e9e9060019062004f87565b9050600086600001828154811062003eba5762003eba62004c6c565b906000526020600020906002020190508087600001848154811062003ee35762003ee362004c6c565b6000918252602090912082546002909202019081556001918201549082015562003f0f90849062004d25565b81546000908152600189016020526040902055865487908062003f365762003f36620050f7565b6000828152602080822060026000199094019384020182815560019081018390559290935588815289820190925260408220919091559450620010099350505050565b6001600160e01b0319808216900362003fd55760405162461bcd60e51b815260206004820152601c60248201527f4552433136353a20696e76616c696420696e7465726661636520696400000000604482015260640162000c36565b6001600160e01b0319166000908152603360205260409020805460ff19166001179055565b6000818152600183016020526040812054620040435750815460018181018455600084815260208082209093018490558454848252828601909352604090209190915562001009565b50600062001009565b6000828152600184016020526040812054808203620040b557505060408051808201825283815260208082018481528654600181810189556000898152848120955160029093029095019182559151908201558654868452818801909252929091205562002a85565b8285620040c460018462004f87565b81548110620040d757620040d762004c6c565b906000526020600020906002020160010181905550600091505062002a85565b6060824710156200415a5760405162461bcd60e51b815260206004820152602660248201527f416464726573733a20696e73756666696369656e742062616c616e636520666f6044820152651c8818d85b1b60d21b606482015260840162000c36565b843b620041aa5760405162461bcd60e51b815260206004820152601d60248201527f416464726573733a2063616c6c20746f206e6f6e2d636f6e7472616374000000604482015260640162000c36565b600080866001600160a01b03168587604051620041c8919062004dc4565b60006040518083038185875af1925050503d806000811462004207576040519150601f19603f3d011682016040523d82523d6000602084013e6200420c565b606091505b50915091506200171a828286606083156200422957508162002a85565b8251156200423a5782518084602001fd5b8160405162461bcd60e51b815260040162000c3691906200448b565b828054620042649062004cb4565b90600052602060002090601f016020900481019282620042885760008555620042d3565b82601f10620042a357805160ff1916838001178555620042d3565b82800160010185558215620042d3579182015b82811115620042d3578251825591602001919060010190620042b6565b50620042e19291506200432d565b5090565b61098a806200510e83390190565b508054620043019062004cb4565b6000825580601f1062004312575050565b601f016020900490600052602060002090810190620022b091905b5b80821115620042e157600081556001016200432e565b6001600160e01b031981168114620022b057600080fd5b6000602082840312156200436e57600080fd5b813562002a858162004344565b6001600160a01b0381168114620022b057600080fd5b60008060008060608587031215620043a857600080fd5b8435620043b5816200437b565b93506020850135620043c7816200437b565b925060408501356001600160401b0380821115620043e457600080fd5b818701915087601f830112620043f957600080fd5b8135818111156200440957600080fd5b8860208260051b85010111156200441f57600080fd5b95989497505060200194505050565b60005b838110156200444b57818101518382015260200162004431565b83811115620013985750506000910152565b60008151808452620044778160208601602086016200442e565b601f01601f19169290920160200192915050565b6020815260006200100660208301846200445d565b600060208284031215620044b357600080fd5b5035919050565b60008060408385031215620044ce57600080fd5b8235620044db816200437b565b946020939093013593505050565b634e487b7160e01b600052604160045260246000fd5b604051601f8201601f191681016001600160401b03811182821017156200452a576200452a620044e9565b604052919050565b60006001600160401b038311156200454e576200454e620044e9565b62004563601f8401601f1916602001620044ff565b90508281528383830111156200457857600080fd5b828260208301376000602084830101529392505050565b600082601f830112620045a157600080fd5b620010068383356020850162004532565b60008060008060808587031215620045c957600080fd5b84356001600160401b03811115620045e057600080fd5b620045ee878288016200458f565b97602087013597506040870135966060013595509350505050565b600080600080600080600080610100898b0312156200462757600080fd5b883597506020890135965060408901359550606089013594506080890135935060a089013562004657816200437b565b925060c0890135915060e089013562004670816200437b565b809150509295985092959890939650565b6000806000606084860312156200469757600080fd5b8335620046a4816200437b565b92506020840135620046b6816200437b565b929592945050506040919091013590565b60008060408385031215620046db57600080fd5b50508035926020909101359150565b60008060408385031215620046fe57600080fd5b8235915060208301356001600160401b038111156200471c57600080fd5b6200472a858286016200458f565b9150509250929050565b8015158114620022b057600080fd5b600080600080600080600060e0888a0312156200475f57600080fd5b8735965060208801356001600160401b03808211156200477e57600080fd5b6200478c8b838c016200458f565b975060408a01359150620047a0826200437b565b90955060608901359080821115620047b757600080fd5b50620047c68a828b016200458f565b9450506080880135925060a0880135620047e08162004734565b915060c0880135620047f2816200437b565b8091505092959891949750929550565b6000602082840312156200481557600080fd5b813562002a85816200437b565b6000806000606084860312156200483857600080fd5b83356001600160401b03808211156200485057600080fd5b6200485e878388016200458f565b94506020915081860135818111156200487657600080fd5b8601601f810188136200488857600080fd5b8035828111156200489d576200489d620044e9565b8060051b9250620048b0848401620044ff565b818152928201840192848101908a851115620048cb57600080fd5b928501925b84841015620048eb57833582529285019290850190620048d0565b979a979950505050604095909501359450505050565b6000602082840312156200491457600080fd5b81356001600160401b038111156200492b57600080fd5b62002161848285016200458f565b600080600080600080600080610100898b0312156200495757600080fd5b88359750602089013596506040890135955060608901359450608089013562004980816200437b565b935060a08901356001600160401b038111156200499c57600080fd5b620049aa8b828c016200458f565b93505060c0890135915060e0890135620046708162004734565b60008060408385031215620049d857600080fd5b823591506020830135620049ec8162004734565b809150509250929050565b6000806040838503121562004a0b57600080fd5b823562004a18816200437b565b91506020830135620049ec8162004734565b60008060008060008060c0878903121562004a4457600080fd5b8635955060208701356001600160401b038082111562004a6357600080fd5b62004a718a838b016200458f565b96506040890135915062004a85826200437b565b9094506060880135908082111562004a9c57600080fd5b5062004aab89828a016200458f565b9350506080870135915060a087013562004ac58162004734565b809150509295509295509295565b6000806000806080858703121562004aea57600080fd5b843562004af7816200437b565b9350602085013562004b09816200437b565b92506040850135915060608501356001600160401b0381111562004b2c57600080fd5b8501601f8101871362004b3e57600080fd5b62004b4f8782356020840162004532565b91505092959194509250565b6000806040838503121562004b6f57600080fd5b823562004b7c816200437b565b91506020830135620049ec816200437b565b60008083601f84011262004ba157600080fd5b5081356001600160401b0381111562004bb957600080fd5b60208301915083602082850101111562002a5357600080fd5b600080600080600080600060a0888a03121562004bee57600080fd5b873562004bfb816200437b565b96506020880135955060408801356001600160401b038082111562004c1f57600080fd5b62004c2d8b838c0162004b8e565b909750955060608a013591508082111562004c4757600080fd5b5062004c568a828b0162004b8e565b9094509250506080880135620047f2816200437b565b634e487b7160e01b600052603260045260246000fd5b634e487b7160e01b600052601160045260246000fd5b60006001820162004cad5762004cad62004c82565b5060010190565b600181811c9082168062004cc957607f821691505b60208210810362004cea57634e487b7160e01b600052602260045260246000fd5b50919050565b6020808252818101527f4f776e61626c653a2063616c6c6572206973206e6f7420746865206f776e6572604082015260600190565b6000821982111562004d3b5762004d3b62004c82565b500190565b6000835162004d548184602088016200442e565b83519083019062004d6a8183602088016200442e565b01949350505050565b60208082526031908201527f4552433732313a207472616e736665722063616c6c6572206973206e6f74206f6040820152701ddb995c881b9bdc88185c1c1c9bdd9959607a1b606082015260800190565b6000825162004dd88184602087016200442e565b9190910192915050565b8054600090600181811c908083168062004dfd57607f831692505b6020808410820362004e1f57634e487b7160e01b600052602260045260246000fd5b81801562004e36576001811462004e485762004e77565b60ff1986168952848901965062004e77565b60008881526020902060005b8681101562004e6f5781548b82015290850190830162004e54565b505084890196505b50505050505092915050565b600062001006828462004de2565b82815260406020820152600062002a8260408301846200445d565b60006020828403121562004ebf57600080fd5b815162002a85816200437b565b600062004eda828562004de2565b835162004d6a8183602088016200442e565b6020808252602e908201527f496e697469616c697a61626c653a20636f6e747261637420697320616c72656160408201526d191e481a5b9a5d1a585b1a5e995960921b606082015260800190565b60006020828403121562004f4d57600080fd5b815162002a858162004734565b634e487b7160e01b600052601260045260246000fd5b60008262004f825762004f8262004f5a565b500490565b60008282101562004f9c5762004f9c62004c82565b500390565b600081600019048311821515161562004fbe5762004fbe62004c82565b500290565b600060ff821660ff84168060ff0382111562004fe35762004fe362004c82565b019392505050565b60006101408c8352806020840152620050078184018d6200445d565b604084018c9052606084018b90526001600160a01b038a81166080860152891660a085015283810360c085015290506200504281886200445d565b60e0840196909652505061010081019290925261012090910152979650505050505050565b6001600160a01b03858116825284166020820152604081018390526080606082018190526000906200509c908301846200445d565b9695505050505050565b600060208284031215620050b957600080fd5b815162002a858162004344565b600082620050d857620050d862004f5a565b500690565b600081620050ef57620050ef62004c82565b506000190190565b634e487b7160e01b600052603160045260246000fdfe608060405260405161098a38038061098a8339810160408190526100229161048b565b61004d60017fa3f0ad74e5423aebfd80d3ef4346578335a9a72aeaee59ff6cb3582b35133d5161054b565b6000805160206109438339815191521461006957610069610570565b6100758282600061007c565b50506105f0565b61008583610147565b6040516001600160a01b038416907f1cf3b03a6cf19fa2baba4df148e9dcabedea7f8a5c07840e207e5c089be95d3e90600090a26000825111806100c65750805b1561014257610140836001600160a01b0316635c60da1b6040518163ffffffff1660e01b8152600401602060405180830381865afa15801561010c573d6000803e3d6000fd5b505050506040513d601f19601f820116820180604052508101906101309190610586565b836102d860201b6100291760201c565b505b505050565b61015a8161030460201b6100551760201c565b6101b95760405162461bcd60e51b815260206004820152602560248201527f455243313936373a206e657720626561636f6e206973206e6f74206120636f6e6044820152641d1c9858dd60da1b60648201526084015b60405180910390fd5b61022d816001600160a01b0316635c60da1b6040518163ffffffff1660e01b8152600401602060405180830381865afa1580156101fa573d6000803e3d6000fd5b505050506040513d601f19601f8201168201806040525081019061021e9190610586565b61030460201b6100551760201c565b6102925760405162461bcd60e51b815260206004820152603060248201527f455243313936373a20626561636f6e20696d706c656d656e746174696f6e206960448201526f1cc81b9bdd08184818dbdb9d1c9858dd60821b60648201526084016101b0565b806102b760008051602061094383398151915260001b61031360201b6100641760201c565b80546001600160a01b0319166001600160a01b039290921691909117905550565b60606102fd838360405180606001604052806027815260200161096360279139610316565b9392505050565b6001600160a01b03163b151590565b90565b60606001600160a01b0384163b61037e5760405162461bcd60e51b815260206004820152602660248201527f416464726573733a2064656c65676174652063616c6c20746f206e6f6e2d636f6044820152651b9d1c9858dd60d21b60648201526084016101b0565b600080856001600160a01b03168560405161039991906105a1565b600060405180830381855af49150503d80600081146103d4576040519150601f19603f3d011682016040523d82523d6000602084013e6103d9565b606091505b5090925090506103ea8282866103f4565b9695505050505050565b606083156104035750816102fd565b8251156104135782518084602001fd5b8160405162461bcd60e51b81526004016101b091906105bd565b80516001600160a01b038116811461044457600080fd5b919050565b634e487b7160e01b600052604160045260246000fd5b60005b8381101561047a578181015183820152602001610462565b838111156101405750506000910152565b6000806040838503121561049e57600080fd5b6104a78361042d565b60208401519092506001600160401b03808211156104c457600080fd5b818501915085601f8301126104d857600080fd5b8151818111156104ea576104ea610449565b604051601f8201601f19908116603f0116810190838211818310171561051257610512610449565b8160405282815288602084870101111561052b57600080fd5b61053c83602083016020880161045f565b80955050505050509250929050565b60008282101561056b57634e487b7160e01b600052601160045260246000fd5b500390565b634e487b7160e01b600052600160045260246000fd5b60006020828403121561059857600080fd5b6102fd8261042d565b600082516105b381846020870161045f565b9190910192915050565b60208152600082518060208401526105dc81604085016020870161045f565b601f01601f19169190910160400192915050565b610344806105ff6000396000f3fe60806040523661001357610011610017565b005b6100115b610027610022610067565b610100565b565b606061004e83836040518060600160405280602781526020016102e860279139610124565b9392505050565b6001600160a01b03163b151590565b90565b600061009a7fa3f0ad74e5423aebfd80d3ef4346578335a9a72aeaee59ff6cb3582b35133d50546001600160a01b031690565b6001600160a01b0316635c60da1b6040518163ffffffff1660e01b8152600401602060405180830381865afa1580156100d7573d6000803e3d6000fd5b505050506040513d601f19601f820116820180604052508101906100fb919061023f565b905090565b3660008037600080366000845af43d6000803e80801561011f573d6000f35b3d6000fd5b60606001600160a01b0384163b6101915760405162461bcd60e51b815260206004820152602660248201527f416464726573733a2064656c65676174652063616c6c20746f206e6f6e2d636f6044820152651b9d1c9858dd60d21b60648201526084015b60405180910390fd5b600080856001600160a01b0316856040516101ac9190610298565b600060405180830381855af49150503d80600081146101e7576040519150601f19603f3d011682016040523d82523d6000602084013e6101ec565b606091505b50915091506101fc828286610206565b9695505050505050565b6060831561021557508161004e565b8251156102255782518084602001fd5b8160405162461bcd60e51b815260040161018891906102b4565b60006020828403121561025157600080fd5b81516001600160a01b038116811461004e57600080fd5b60005b8381101561028357818101518382015260200161026b565b83811115610292576000848401525b50505050565b600082516102aa818460208701610268565b9190910192915050565b60208152600082518060208401526102d3816040850160208701610268565b601f01601f1916919091016040019291505056fe416464726573733a206c6f772d6c6576656c2064656c65676174652063616c6c206661696c6564a26469706673582212200c66c087167e36c4aa1e9392fd99210a524d519667526d935f0356765a7cdb9d64736f6c634300080d0033a3f0ad74e5423aebfd80d3ef4346578335a9a72aeaee59ff6cb3582b35133d50416464726573733a206c6f772d6c6576656c2064656c65676174652063616c6c206661696c65644552433732313a207472616e7366657220746f206e6f6e20455243373231526563656976657220696d706c656d656e7465724552433732313a206f776e657220717565727920666f72206e6f6e6578697374656e7420746f6b656ea264697066735822122072e0cf18442fbcfac032dad514f0a9182436033127b4e53befc9cd17f58feebe64736f6c634300080d0033",
  "linkReferences": {},
  "deployedLinkReferences": {}
}